:020000040000fa
:080000000002040000000000f2
:020000040000fa
:100400008fd92000007f2400000188000000000038
:100410000a00070011000700000020000000e000b3
:10042000020032000000020000000000482102002b
:10043000000000000040da000000fe004440a90077
:10044000401520000000e000030032000000200002
:10045000a00188004440a8000000060020b323004b
:10046000010020001500370062004000e0804800d5
:10047000910188009001ba0062004000e0804800cd
:10048000910188009002ba0062004000e0804800bc
:100490000002eb006028e10004003a000059eb0084
:1004a0008301e900fdff3e00040037006128e10000
:1004b000010032000082eb00050007009101880076
:1004c0001001ba000200e000e7ff3a00000005005a
:1004d000910188008002780062004000e0804800be
:1004e0003559ba008301e900080032002559ba00e5
:1004f0008301e900050032000400e000f4ff32004f
:1005000015d9ba008301e900f1ff3a0000000600a6
:100510008c02040000000000881f780002047800ac
:1005200014000700080040004f0478000000060097
:100530000000fa00881f7800000478003fb9970097
:10054000ea81570080007800c028200010000700d2
:10055000800078000000e000020035000040eb0061
:1005600000f47800010078004f0478000080fa0061
:10057000000006008001eb000200370061f0790006
:100580008301e800828f5100fcff3a000000060062
:100590006200fa00889fbe008a9fbe000004be0071
:1005a000020578008300780060f92f000f004000fa
:1005b000b000070088979f0099979f000000eb000c
:1005c000a09f9f009a4578000b80fb000000ea0086
:1005d000cf04de0050c2b30080cf550002003200cd
:1005e00009047800010037000904e9000800e00070
:1005f0000b0034001f909700080178008a007800f3
:100600008f9197000300010090979f000000e00089
:10061000930032002f98970000004400a09f9f0095
:100620000905450050c2b30080cf550004003200d8
:100630000b04e000e3ff3a002f9897008900370091
:100640000000eb00809f9f00f0979f00e0979f00c5
:10065000d0979f00c0979f00b0979f00c09f9f00ba
:1006600009003700a0d820000080500000004000a2
:10067000e1d72000e10078004f989700010070005a
:10068000c09f9f000a05e8001a4478008800fb001c
:10069000a0d820007c000700800078000000e00067
:1006a000f0ff3a00a0c2b300804f54000e003a00a1
:1006b000bf8897000180e900b08f9f00100078008c
:1006c000b09f9f000000e00005003d000000ea0030
:1006d000b09f9f004f9897000020a000c09f9f00f0
:1006e0000a05e80010003700b19f9f00090037009d
:1006f000bf989700f0ff2700808f50000400320061
:100700006a08b9000000410003004000b09f9f004c
:100710000a05e8001a01fb0003fd2f000300410059
:10072000e90f5000f2ff3600e0c2b3009a4f10000c
:10073000040032000080eb00909f9f008a04780044
:100740001c0037008a04e800a0c2b300994f1000d3
:1007500007003a00bf8897000180e900b08f9f0032
:1007600010007800909f9f008a84e80011003700f5
:100770000000eb00909f9f00090037009f989700b2
:10078000f0ff2700808f5000040032006a08b90093
:100790000000410003004000909f9f008904e80092
:1007a0001901fb0003fd2f0003004100e90f500079
:1007b000f2ff3600194478008800fb0000d92000c1
:1007c000310007000000e00002003a000044780019
:1007d000010037008904e800a87f9f0080c6b300ad
:1007e000804f540004003a00994f14000a003a0068
:1007f0006640500006003700c0c6b300804f54006a
:1008000005003a00994f140003003a00654040008b
:10081000a07f9f008904e8000905e800cbfb2f00ba
:100820008f8545001901fb0060f92f000f00400083
:100830000084e8008b0178008000780008007800d0
:100840001a0007000000e00005003a008b00780065
:1008500008007800580107000000e00059ff3d0043
:100860000080eb004f05be004f04be000080fa0080
:10087000000006000200fa00f1bf9f0001087800a6
:100880000080fa0000000600040037000204e000c7
:1008900001003a00000005000000e8001041780067
:1008a000814f5100f9ff3a0000000600889fbe000a
:1008b0008a1f7800000478000102780082447800e2
:1008c00003057800e0c6b300804f5100d20032002b
:1008d00015003c006b405000804f51002400320056
:1008e0000a003c0070405000804f51000f01320060
:1008f00065404000804f51007400320050c2b30088
:10090000804f510020013a001c01370040c6b3005f
:10091000804f51001b00320065404000804f510065
:1009200019013a001700370030c7b300804f51005b
:10093000fe00320007003c0064405000804f510030
:10094000620032000040e800804f51000e013a0082
:10095000e700370050c7b300804f51005b00320002
:1009600063404000804f510007013a0057003700b4
:100970009180e900010a7800780090009171780078
:1009800007013700a8609000c0c6b30080cf5000b8
:100990000a003a009400780064805000000a780051
:1009a0001000be004f89de00cf91de000002be00c5
:1009b00002037800820378001300370010c7b300e9
:1009c00080cf500003003200a0c6b30080cf50009b
:1009d00006003a009400780068805000000a780011
:1009e0003002be002003be00070037001480e9007b
:1009f000000a78001000780000027800cfa2de0024
:100a00000503780086037800049cbe000694be00af
:100a1000a860900080c6b30080cf50000e00320066
:100a200020c6b30080cf500005003a000400fb0050
:100a3000cf80de0001017800820178000a003700d3
:100a400040c7b30080cf5000030032006640400032
:100a500080cf500006003a0004007800cf80de000e
:100a60000101780082017800009cbe000294be0063
:100a70003800be002801be00e00f5000e08f580093
:100a8000e00f5900e08f590003003d00780090000e
:100a9000d1c2b3000a003700081090000018a3006c
:100aa0000300320078009000b1c2b30004003700a8
:100ab0000008a300530032007800900001c2b30088
:100ac000017578000000e8004d003700a860900034
:100ad000c0c6b30080cf500006003a0094007800f2
:100ae00064805000000a78001002be006033b80035
:100af0001300370010c7b30080cf5000030032004e
:100b0000a0c6b30080cf500006003a0094007800e1
:100b100068805000000a78003002be002003be004a
:100b2000070037001480e900000a78001000780000
:100b300000027800050020000600200007002000c9
:100b4000049cbe000694be00a860900080c6b3005e
:100b500080cf50000e00320020c6b30080cf50007e
:100b600005003a000480fb00010020000200200084
:100b7000030020000a00370040c7b30080cf5000b8
:100b8000030032006640400080cf500006003a006b
:100b90000400780001002000020020000300200073
:100ba000009cbe000294be00081090000038a30014
:100bb000140032003800be002801be00e00f5000d3
:100bc000e08f5800e00f5900e08f59000d0032000f
:100bd00080c7b30080cf54000300320080c5b3004b
:100be00080cf540007003a007800900001c3b300a2
:100bf000017578008000e80009f578000080e800c1
:100c0000700498007800900000004500600498008f
:100c10008940780042003700a8609000c0c6b30049
:100c200080cf5000250032000a003c006440500094
:100c300080cf50002800320000c0e80080cf500074
:100c4000140032006840500080cf500022003a006b
:100c50000a00370040c7b30080cf50001e003200aa
:100c60006640400080cf50001b00320069405000b9
:100c700080cf500018003a00060037001480e900c9
:100c8000000a780010007800485c9000084878005e
:100c9000450037001480e900000a7800100278004f
:100ca00068089000cf80de000101780082017800a2
:100cb000009abe000292be003b0037001480e9009b
:100cc000000a78001001780068089000cf80de00ec
:100cd0000089be00340037001480e900000a780063
:100ce00010007800680c9000080878002e0037008b
:100cf0001180e9008008780010007800cf80de00c5
:100d00000101780082017800009cbe000294be00c0
:100d100078009000000045006004980081c7b3008f
:100d200008007800ee0007001f0037001480e9007b
:100d3000000a7800100078006004980058099000bc
:100d40000200e00002003d009d010700090037009d
:100d50008000eb00a1010700800078000000e000a7
:100d6000030032006800900000805000010037004e
:100d700058089000100c98000b0037007800900085
:100d8000027578000600370078009000800045006a
:100d90000904e00001003a0059c2b3008948780014
:100da0000000e800700498000000eb004f05780098
:100db0004f04be00000006000400fa00889fbe0039
:100dc0008a9fbe008c1f780000047800010678001e
:100dd00070089000f8009000010050008808900012
:100de000010050009808900001005000a8089000f1
:100df00001005000b808900001005000c8089000a1
:100e0000810550000002220090bf9f0000032300d4
:100e1000a0bf9f00081090000028a30018003a000f
:100e20000b00e000160034008b0478000905780000
:100e3000e28f5400020036002a0020000200370032
:100e40000900e0000b00340058009000c801900039
:100e50000a017800ee80570003000100500498005a
:100e60000000e00096003200680890000000450095
:100e7000600c98008a8454004240a900ebff3c00bb
:100e8000780190000200e0000b0034005800900050
:100e9000c80190008c007800030001005004980005
:100ea0000000e0008600320068089000f800900022
:100eb00001004000600c9800880c90000900e000e0
:100ec0001500340009057800e28f54000200360056
:100ed0002a002000020037000900e0000b00340067
:100ee00058009000c80190000a017800ec8057007b
:100ef00003000100500498000000e0007000320080
:100f00006808900000004500600c98008a84540036
:100f10004240a900ebff3c00180990000200e000ed
:100f20000b003400e800900058009000c8019000c9
:100f300003000100500498000000e000600032004f
:100f4000680890009808900001004000600c98002c
:100f5000a80c90000900e000150034000905780095
:100f6000e28f5400020036002a0020000200370001
:100f70000900e0000b00340058009000c801900008
:100f80000a017800ec80570003000100500498002b
:100f90000000e0004a0032006808900000004500b0
:100fa000600c98008a8454004240a900ebff3c008a
:100fb000380990000200e0000d003400e8009000c5
:100fc000180890008080400058009000c8019000f0
:100fd00003000100500498000000e00038003200d7
:100fe00068089000b808900001004000600c98006c
:100ff000c80c90000900e0001500340009057800d5
:10100000e28f5400020036002a0020000200370060
:101010000900e0000b00340058009000c801900067
:101020000a017800ec80570003000100500498008a
:101030000000e00022003200680890000000450037
:10104000600c98008a8454004240a900ebff3c00e9
:10105000081090000028a3001b0032000b00e000e5
:10106000190034008b04780009057800e28f5400e1
:10107000020036002a002000020037000900e000cc
:101080000b00340058009000c80190000a0178005d
:10109000ee80570003000100500498000000e000bb
:1010a000070032006808900000004500600c9800be
:1010b0008a8454004240a90003003400eaff37004c
:1010c0000080eb00010037000000eb004f067800c5
:1010d0004f05be004f04be000080fa00000006006d
:1010e000ef02b000889fbe008a9fbe008c9fbe00aa
:1010f0008e1f780000067800d0d62000c0b79f0071
:1011000080c5b30080cf500008003200c2d5200057
:10111000c2b79f007740400080cf500003003a00e4
:1011200083002000b3b79f000a00370080c7b300d8
:1011300080cf500005003200a4002000b4b79f000b
:1011400080c5b30080cf500002003a0000012000ab
:10115000b0b79f003c04be002c05be0040c6b300e3
:1011600080cf5000030032006540400080cf500027
:101170000b003a00e00f5400e08f5c00e00f5d00d0
:10118000e08f5d0006003d006000b8006011b8000f
:1011900008045000898458000a0559008b855900bd
:1011a000e00f5400e08f5c00e00f5d00e08f5d0019
:1011b00004003a005c0890008d0120000000e0006f
:1011c0000c003200bfb0970001027800cfa2de0011
:1011d00005037800860378000800be000a01be00ff
:1011e000280107004fb2970064407800d0df9f00cd
:1011f0007d0120003fb0970000027800cfa2de0002
:1012000005037800860378000800be000a01be00ce
:1012100015010700009ebe000296be000d00e90009
:1012200061fc2f008f804000008740001e003700c7
:101230003fb1970002047800cfc4de0009057800b2
:101240008a0578000802be000a03be007fa8970046
:101250008fb097001fb19700afb197000d01070045
:10126000d0b79f00e1b79f00f2b79f0083bf9f00f8
:101270008d06e9000802be000a03be008b010700cc
:101280007faa970000005200cfb097006157780006
:101290005fb09700efb097007fb197008fb99700cc
:1012a000009ebe000296be003c00be002c01be00a7
:1012b000f0af9f0081b79f0092b79f00a3b79f0038
:1012c000e00f5000e08f5800e00f5900e08f590008
:1012d000020034000d00e000d5ff3c00bfb09700d5
:1012e000e88f500010003a000c1090000038a30066
:1012f0000d003200f78f560006003e0062fc2f0002
:101300000f0141008d00410000c3b300914f100058
:10131000050032008d06e90000c3b30063fc2f0016
:101320008f81410080f17e0078811600120e9800b6
:101330006c00900063fc2f008f8141008d80410084
:101340008cfc07001c0990005c089000800f510085
:1013500006003d0002005000000e98000c109000a6
:101360000040a100001698000f0037000000e000c8
:101370000d003d000c10900074006000f00f500054
:1013800009003a007c089000fc0090000100500029
:101390008c08900001005000020050004240a9005b
:1013a00001003400000e98004f0778004f06be0081
:1013b0004f05be004f04be00ef02b1000000060062
:1013c00080007800010037000000e8001004e00011
:1013d000fdff3a0001005000000006008001eb0014
:1013e000040037008301e80090cf100004003200b1
:1013f0000000e800828f5100faff3a000000eb0085
:1014000000000600839f68000100e00002003d002c
:1014100060001000e08018000300e00002003d00c2
:1014200060011100e0811900050007004f00e00095
:1014300002003b0060001000e08018000000060081
:101440006022b800060220000000d0008180d20097
:101450000482d2008582d2000000a0000202520065
:1014600083825a00030031000202420083824a0054
:101470000000a1000603e900f3ff3a0000000600a7
:10148000881f7800000478005001be004000be00b4
:10149000040040008580480006014900878149001a
:1014a000009cbe000294be000400e1000588e1003b
:1014b0000690e1000798e100020031006800440056
:1014c0001008e8004f04780000000600f487470089
:1014d000889fbe008a9fbe008c9fbe008e1f780032
:1014e0000205be000004be00d4b79f00e5b79f0010
:1014f000f6b79f0087bf9f000000eb00c0b79f00ba
:10150000b0b79f00a0b79f0090b79f0080b79f0023
:101510000d042000bfb097004fb0970000014000bd
:101520000000e0000f003d004f08de0000007100e9
:10153000c0b79f009e00070001003d001200200080
:10154000a100070001003d0012002000a6000700d6
:10155000b1000700b60007000f004000c8ff0700f9
:10156000220037004f08de0000067100ccb79f0054
:101570008f00070001003d001200200092000700cc
:1015800001003d001200200097000700a2000700a4
:101590000fb297009fb297002fb39700bfb3970089
:1015a000a90007000000520081805a0002015b0080
:1015b00083815b0080b79f0091b79f00a2b79f0017
:1015c000b3b79f000007eb009f0007000020e10079
:1015d00001a8e10002b0e10003b8e1000100310020
:1015e0001e0020000e005600c0b79f004fb29700ab
:1015f0000400e0000700350010002000010020007a
:101600006011b80008047000898470000a05710038
:101610008b8571008d06e900beff3a000400e000f2
:1016200003003d00820007000f00400094ff070008
:101630004fa897000000e00004003a000fb49700a4
:101640009fb497002fb59700bfb59700940007008f
:101650004f0778004f06be004f05be004f04be0086
:101660004f01b10000000600881f7800180020001c
:10167000881f780095ff07008f87e9004f047800e6
:1016800000000600801feb0090ff07008f87e90035
:1016900000000600889fbe008a9fbe008c1f780055
:1016a0006e00070007003d0073000700e00f5b00bd
:1016b000e08f5b0007003d00320007000006eb00f2
:1016c000040037003400070002003d002a00070034
:1016d0001c00200072000700e3ff07000203be00a9
:1016e0000002be000c00e0000100320022000700f2
:1016f0000400be000601be004f0678004f05be0084
:101700004f04be0000000600889fbe008a9fbe00f6
:101710008c1f78005100070005003d0056000700af
:10172000e00f5b00e08f5b0006003d000400370027
:101730001900070003003d006000b8006011b80008
:101740001000070056000700ceff07000203be008e
:101750000002be000c00e00001003200060007009d
:101760000400be000601be004f0678004f05be0013
:101770004f04be00000006006000b8006011b80011
:10178000000037000402500085825800060359000b
:1017900087835900000006000006eb00e00f5200ae
:1017a000e08f5a00e00f5b00e08f5b000000060056
:1017b0000180400090b79f000001eb008fb09700c0
:1017c0000100e000000006000200700090b79f00da
:1017d0000180400080b79f000001eb00ffa8970048
:1017e0000100e000000006000200700080b79f00ca
:1017f000018040006faa9700cf20de00010070003a
:10180000f0af9f0004024200250007004f18de00e1
:101810000002720000000600e4af9f0008044400cc
:1018200089844c000a054d008b854d0000000600a0
:101830003fb29700cfb297005fb39700efb3970026
:1018400000fe2f00000006003fb09700cfb09700c9
:101850005fb19700efb19700000006000205be00df
:101860000004be00e00f5000e08f5800e00f590068
:10187000e08f5900000006006000b8006011b80059
:1018800008045000898458000a0559008b855900c6
:101890001c002000e00f5200e08f5a0000000600fc
:1018a0000800be000a01be0000000600889fbe00be
:1018b0008a9fbe008c1f78000205be000004be0097
:1018c0000006eb00e00f5000e08f5800e00f5900d9
:1018d000e08f590007003d006000b8006011b800bb
:1018e00008045000898458000a0559008b85590066
:1018f0001c002000e00f5200e08f5a00e00f5b0058
:10190000e08f5b0002003d000f0007000c00a2000a
:101910000800be000a01be00120007000203be005c
:101920000002be000c00e0000100320006000700cb
:101930000400be000601be004f0678004f05be0041
:101940004f04be00000006006000b8006011b8003f
:10195000040250008582580006035900878359000d
:1019600000000600889fbe008a9fbe008c9fbe00bc
:101970000404b8000506b8008904460060854e00de
:101980000606b8000a054600e0854e000706b800c6
:101990008b054600040eb800890446000a854e00f7
:1019a000e0854d00050eb8000a0546008b854e0007
:1019b000060eb8008b0546000416b8000a0546005e
:1019c0008b854e000516b8008b054600041eb80036
:1019d0008b0546000800be000a01be004f06be008f
:0c19e0004f05be004f04be0000000600d2
:020000040000fa
:0200000401f009
:04000c00f8ff0000f9
:020000040000fa
:0200000401f009
:040010005bff000092
:020000040000fa
:0200000401f009
:040014007fff00006a
:020000040000fa
:0200000401f009
:04001800ffff0000e6
:020000040000fa
:100008005640000056400000564000005640000090
:100018005640000056400000564000005640000080
:100028005640000056400000564000005640000070
:100038005640000056400000564000005640000060
:100048005640000056400000564000005640000050
:100058005640000056400000564000005640000040
:100068005640000056400000564000005640000030
:100078005640000056400000564000005640000020
:100088005640000056400000564000005640000010
:1000980076370000564000005640000056400000e9
:1000a80056400000564000005640000056400000f0
:1000b80056400000564000005640000056400000e0
:1000c80056400000564000005640000056400000d0
:1000d80056400000564000005640000056400000c0
:1000e80056400000564000005640000056400000b0
:1000f80056400000564000005640000056400000a0
:1001080056400000564000002237000056400000cc
:10011800564000005640000056400000564000007f
:10012800564000005640000056400000564000006f
:10013800564000005640000056400000564000005f
:100148005640000056400000564000004c37000062
:10015800564000005640000056400000564000003f
:10016800564000005640000056400000564000002f
:10017800564000005640000056400000564000001f
:10018800564000005640000056400000564000000f
:1001980056400000564000005640000056400000ff
:1001a80056400000564000005640000056400000ef
:1001b80056400000564000005640000056400000df
:1001c80056400000564000005640000056400000cf
:1001d80056400000564000005640000056400000bf
:1001e80056400000564000005640000056400000af
:0801f8005640000056400000d3
:020000040000fa
:10020800564000005640000056400000564000008e
:10021800564000005640000056400000564000007e
:10022800564000005640000056400000564000006e
:10023800564000005640000056400000564000005e
:10024800564000005640000056400000564000004e
:10025800564000005640000056400000564000003e
:10026800564000005640000056400000564000002e
:10027800564000005640000056400000564000001e
:10028800564000005640000056400000564000000e
:1002980076370000564000005640000056400000e7
:1002a80056400000564000005640000056400000ee
:1002b80056400000564000005640000056400000de
:1002c80056400000564000005640000056400000ce
:1002d80056400000564000005640000056400000be
:1002e80056400000564000005640000056400000ae
:1002f800564000005640000056400000564000009e
:1003080056400000564000002237000056400000ca
:10031800564000005640000056400000564000007d
:10032800564000005640000056400000564000006d
:10033800564000005640000056400000564000005d
:100348005640000056400000564000004c37000060
:10035800564000005640000056400000564000003d
:10036800564000005640000056400000564000002d
:10037800564000005640000056400000564000001d
:10038800564000005640000056400000564000000d
:1003980056400000564000005640000056400000fd
:1003a80056400000564000005640000056400000ed
:1003b80056400000564000005640000056400000dd
:1003c80056400000564000005640000056400000cd
:1003d80056400000564000005640000056400000bd
:1003e80056400000564000005640000056400000ad
:0803f8005640000056400000d1
:020000040000fa
:1019ec000d0a00000d0a0000000d00000a4c00005a
:1019fc00696e0000652000002025000033640000a3
:101a0c00202000002025000033640000202000006e
:101a1c002025000033640000202000002025000059
:101a2c0033640000000d00000a2a00002a2a00007e
:101a3c002a2a00002a2a00002a2a00002a2a00004a
:101a4c002a2a00002a2a00002a2a00002a2a00003a
:101a5c002a2a00002a2a00002a2a00002a00000054
:101a6c000d0a000043750000626500002020000094
:101a7c0020250000336400002020000020200000fe
:101a8c0020250000336400002020000020200000ee
:101a9c002025000033640000000d00000a2d00001a
:101aac002d2d00002d2d00002d2d00002d2d0000c2
:101abc002d2d00002d2d00002d2d00002d2d0000b2
:101acc002d2d00002d2d00002d2d00002d2d0000a2
:101adc002d2d00002d2d0000000000000d0a00002f
:101aec00257500000d0a0000000d00000a420000e0
:101afc00617400007472000079200000566f0000c1
:101b0c006c74000061670000652000003a20000042
:101b1c0025750000000d00000a55000073650000db
:101b2c00722000005265000073650000742e0000e6
:101b3c002e2e0000000d00000a5500006e6b0000f8
:101b4c006e6f0000776e000020520000657300007d
:101b5c0065740000000d00000a0d00000a4400002e
:101b6c00493a000025750000000d00000a4c0000e9
:101b7c004f3a000025750000000d00000a4f0000d0
:101b8c00433a000025750000000000001d14000001
:101b9c001516000017180000212a00002928000043
:101bac00272600002f380000393a00003b33000094
:101bbc003c3b00003a390000382f0000262700007b
:101bcc00282900002a210000181700001615000013
:101bdc000d0a0000002000007c20000025320000cf
:101bec0078000000207c0000200d00000a0000009e
:101bfc00207c000020250000337500000020000030
:101c0c007c20000058580000002000007c200000c0
:101c1c0025320000750000002f2e00000607000082
:101c2c00d391000007890000445500009610000075
:101c3c00005d000093b100000e3b000073420000f9
:101c4c00f8000000073f0000181d00001cc7000032
:101c5c0000b00000876b0000f8b6000010ea00002e
:101c6c000a00000019410000005900007f3f0000ed
:101c7c00883100000bff0000000000000000000095
:081c8c00000000000000000050
:020000040000fa
:101c94000400fa00204798000000eb00000f7800d1
:101ca400100037009e007800e0d320000080400040
:101cb400904078002e40900080cf500014003200f5
:101cc4009e00780020d420000080400090407800de
:101cd4002e40900080cf500001003a000c003700e5
:101ce4001e0fe800300020009e0f1000edff3600ac
:101cf400905080000000e8009050880091508000cf
:101d0400e0d3200000804000ae40900001487800fd
:101d14000080fa00000006000400fa000000eb0056
:101d2400000f7800160037009e007800e0d32000f2
:101d3400008040009040780000c5b30080cf500080
:101d44000e003e009e007800e0d32000008040009a
:101d540010407800120007000000e00007003a007d
:101d64009e007800e0d320000080400010407800fe
:101d74000080fb0010079800060037001e0fe800e3
:101d8400300020009e0f1000e7ff34000000eb003d
:101d9400100798001e0090000080fa000000060062
:101da4000400fa00004f7800c0c2b3009e4f100038
:101db40003003a00100020001007980014003700b8
:101dc400c0c4b3009e4f100003003a00100020006e
:101dd400100798000e00370040c2b3009e4f100059
:101de40003003a0010002000100798000800370094
:101df40040c0b3009e4f100003003a0010002000c2
:101e040010079800020037000000eb00100798004c
:101e14001e0090000080fa00000006000600fa0090
:101e24004047980000c0eb00304798000040eb00aa
:101e340020479800ad020700706180002b06070060
:101e44000000eb00000f78001a0037001e00780035
:101e5400804078004e409000140707008080fb000b
:101e64000090200000804000904078003e409000a8
:101e740080cf50000e0031001e00780080407800b2
:101e84004e40900009070700404798001e00780064
:101e9400804078004e409000040707008080fb00db
:101ea4000090200000804000904078003147980066
:101eb4001e8fe800700020009e0f1000e3ff360024
:101ec4002e4090000080fb000080fa000000060015
:101ed4000800fa0000c0eb00604798000040eb00e7
:101ee400504798008102070070618000ff050700d9
:101ef4000000eb0010079800320037009e009000ad
:101f0400e0d32000008040009040780041479800d2
:101f1400ce40900000c5b30080cf500026003e00a4
:101f24004e4090009eff07000000e00022003a00af
:101f34000000eb00000f78001c0037001e00780042
:101f4400804078004e409000d80607008080fb0057
:101f54000090200000804000904078006e40900087
:101f640080cf5000100031001e00780080407800bf
:101f74004e409000cd060700504798001e007800a0
:101f8400804078004e409000c80607008080fb0027
:101f94000090200000804000904078006147980045
:101fa4001e009000a05088001e8fe80071002000e1
:101fb4009e8f1000e1ff36001e0090000000e80034
:101fc400100798001e009000e30f5000cbff36006e
:101fd4005e4090000080fb000080fa0000000600d4
:101fe4000200fa0000c0eb00104798000040eb002c
:101ff400004f7800921407003c02070070618000d3
:10200400ba0507008e140700c0c2b300160107000a
:102014000000e00009003a00c192200091407800dd
:102024001e40900080cf5000040031002cc9bf0036
:1020340010479800c0c2b300004f7800c0c4b3007a
:10204400090107000000e00009003a00c1942000e3
:10205400914078001e40900080cf50000400310071
:102064004cc9bf0010479800c0c4b300004f7800ab
:1020740040c2b300fc0007000000e00009003a0081
:1020840041922000914078001e40900080cf500083
:102094000400310024c9bf001047980040c2b300b7
:1020a400004f780040c0b300ef0007000000e000dc
:1020b40009003a0041902000914078001e409000b1
:1020c40080cf50000400310004c9bf0010479800bd
:1020d40040c0b300004f78001e80fb000080fa006f
:1020e400000006000600fa00b80e0700741407008a
:1020f40073140700ba0e070090508000000f780098
:102104006061800000c0e900e74060007061800009
:1021140066060700204798002e409000ae00070096
:102124000000e00011003a002e4090000081fb0006
:102134002e4090008080fb00008020000080400042
:1021440010407800804078000144a0000080200006
:1021540000004100014878002acdbf000004e000df
:10216400020032002e409000c9fe0700606180002a
:1021740000c0e800e7406000706180004b06070083
:10218400204798002e409000930007000000e000d4
:1021940011003a002e4090000081fb002e40900078
:1021a4008080fb0000802000008040001040780008
:1021b400804078000144a00000802000000041001d
:1021c400014878002bcdbf000004e000020032007b
:1021d4002e409000aefe070060618000e740600082
:1021e4007061800031060700204798002e4090005f
:1021f400790007000000e00011003a002e40900032
:102204000081fb002e4090008080fb0000802000b5
:102214000080400010407800804078000144a00015
:102224000080200000004100014878002ccdbf0050
:102234000004e000020032002e40900094fe0700eb
:10224400905080009e0f100003003a000000eb0045
:102254002007980002003700100020002007980093
:102264002e0090000080fa00000006000a00fa0028
:10227400604798006e4090008080fb000080200042
:102284000080400090407800114798006e40900014
:102294008080fb0000902000008040009040780087
:1022a400414798004e4090000004e00004003a00ca
:1022b4006e4090000080fb00400798004300370008
:1022c4006e409000204798000040eb00004f7800db
:1022d400380037009e4078006e409000f3050700f8
:1022e400304798003e4090003b0007000000e000ab
:1022f4002d003a001e4090000080fb004500de00e7
:10230400610060000004e000170032001e40780005
:102314006d0007009e409000014060000004e00052
:1023240021003a003e4090008080fb000090200095
:1023340000804000904078004e40900080cf5000d4
:10234400190031003e4090008080fb000090200086
:102354000080400090407800414798003e40900043
:1023640020479800100037003e4090008080fb001a
:102374000090200000804000904078004e40900083
:1023840080cf5000080031003e4090008080fb0068
:102394000090200000804000904078004147980061
:1023a4003e409000204798001e40780000c0e8009e
:1023b400004f780071c0b3009ecf1000c5ff3600f7
:1023c4002e4090000080fb00400798004e009000d3
:1023d4000080fa00000006000600fa00204798007a
:1023e4000000eb00000f7800170037001e00780093
:1023f40000004000e600400040c42000008040008f
:102404009000780000052000808f50000d003e00f1
:102414001e00780000004000e600400040c4200098
:1024240000804000900078002e4090000080fb0067
:10243400808f500003003a0010002000200798000d
:10244400060037001e0fe800300020009e0f100029
:10245400e6ff34000000eb00200798002e009000f7
:102464000080fa00000006000600fa0020479800e9
:102474000000eb00000f78000b0037009e0078008e
:1024840020d4200000804000904078002e4090002e
:1024940080cf500003003a0010002000200798006d
:1024a400060037001e0fe800300020009e0f1000c9
:1024b400f2ff34000000eb00200798002e0090008b
:1024c4000080fa00000006000600fa00004f7800c1
:1024d4001e80fb00200798002e009000e30f5000a0
:1024e400230032002e009000e30f50000a003c004d
:1024f4002e009000e10f5000170032002e009000d3
:10250400e10f500017003c002e0090000000e00096
:102514000e003200250037002e009000e50f500019
:10252400190032002e009000e50f50001300350012
:102534002e009000e60f5000160032002e0090008e
:10254400e70f50001600320018003700100020007a
:10255400100798001700370030002000100798007b
:1025640014003700200020001007980011003700e5
:1025740060002000100798000e0037004000200083
:10258400100798000b003700c000200010079800c7
:10259400080037008000200010079800050037006d
:1025a4009000200010079800020037000000eb00a4
:1025b400100798001e0090000080fa00000006003a
:1025c4000200fa00889fbe00405a8000e90f5000c4
:1025d400fdff3a00806180008040780070618000d7
:1025e400eb040700104798001e4090006440400030
:1025f400e7406000606180006740600000cf5000e9
:1026040069cf2000994478000984fb001e407800bb
:102614007a0507008040780080a120000000440073
:10262400014878000940e800f6ecb70062cf2000ca
:10263400124178008280fb0080a12000808040004d
:1026440020c8b300804878000240e800f6ecb700e8
:1026540062cf2000124178008280fb0080a120001c
:102664008080400010ccb300804878000240e8002d
:10267400f6ecb700680a070000f9270041002000c3
:102684007b160700405a8000e90f5000fdff3a0016
:102694003200200003002000a00a200001002000d6
:1026a400f114070000ba2f00c102200070160700c1
:1026b40000ba2f00c10220006d16070062cf20006f
:1026c400124178008280fb0080a1200080804000bd
:1026d40020c9b300804878000240e800f6ecb70057
:1026e40062cf2000124178008280fb0080a120008c
:1026f4008080400010ccb300804878000240e8009d
:10270400f6ecb700440a070000f927004100200056
:10271400571607002259800033598000b0f6230071
:1027240001002000800f5100818f5900f9ff34000f
:102734000000eb00f0618800c20a200003002000c2
:102744002000200001002000c71407001e40900054
:102754000080fb00640040000030a000606188003d
:10276400606180006f006000606188004f04be00fb
:102774000080fa00000006000400fa00889fbe00f2
:102784002047980070618000ae409000c7040700a5
:10279400004f7800aa1207001e4078000eff0700c1
:1027a4000000e0004e003a002e40900064404000db
:1027b400e7406000606180006740600000c0500036
:1027c400104798001e4090000080fb0061006000ec
:1027d4000004e00042003a002e4090000080fb001c
:1027e40060618800405a8000e90f5000fdff3a0004
:1027f4003200200003002000a00a20000100200075
:102804009914070069cf2000994478000984fb00db
:102814001e409000f90407008040780080a1200049
:1028240000004400014878000940e800f6ecb700d5
:1028340062cf2000124178008280fb0080a120003a
:102844008080400000c8b300804878000240e8005f
:10285400f6ecb70062cf2000124178008280fb00c2
:1028640080a120008080400010ccb3008048780014
:102874000240e800f6ecb700e7090700405a800080
:10288400e90f5000fdff3a0012042000030020006d
:1028940020082000010020007314070000ba2f0054
:1028a400c1022000f215070000ba2f00c102200067
:1028b400ef1507001e80fb007061880060618000d6
:1028c400640040000030a000606188006061800006
:1028d4006f0060006061880010002000f0618800d3
:1028e4004f04be000080fa00000006000200fa0057
:1028f4000040eb00104798000f0037001e40900086
:102904000081fb001e4090008080fb0000802000be
:10291400008040009040780000cfb30080c0600089
:102924000080200000004100014878001e40900013
:102934000040e800104798009e40900000c5b30096
:1029440080cf5000edff360070618000f601070073
:102954000000e00005013a00d06180000000e000c2
:1029640002013a00f06180000000e000ff003a003c
:102974000040eb00104798003d0037001e409000d7
:102984000081fb001e4090008080fb00008020003e
:10299400008040001040780080407800f140b3008f
:1029a4000080200000004100014878001e40900093
:1029b4000080fb00690140001e4090000080fb0085
:1029c400e9004000008020000080400010407800b2
:1029d40080407800f140b3000080200000004100f6
:1029e400014878001e4090000080fb00f2032000a4
:1029f400000141001e4090000080fb00f103200014
:102a0400808040000080200000804000104078005a
:102a140080407800f140b3000080200000004100b5
:102a2400014878001e4090000080fb0082042000d2
:102a3400000141001e4090000080fb008104200042
:102a4400808040000080200000804000104078001a
:102a540080407800f140b300008020000000410075
:102a6400014878001e4090000040e800104798009c
:102a74001e409000e84f5000c0ff360020c1b30054
:102a840010479800390037001e4090000081fb0079
:102a94001e4090008080fb000080200000804000e9
:102aa4001040780080407800f140b300008020009e
:102ab40000004100014878001e4090000080fb00a7
:102ac4000001e8001e4090000080fb008000e80048
:102ad4000080200000804000104078008040780092
:102ae400f140b3000080200000004100014878005c
:102af4001e4090000080fb00670140001e409000d3
:102b04000080fb00e70040000080200000804000bf
:102b14001040780080407800f140b300008020002d
:102b240000004100014878001e4090000080fb0036
:102b3400680140001e4090000080fb00e800400057
:102b44000080200000804000104078008040780021
:102b5400f140b300008020000000410001487800eb
:102b64001e40900069404000104798009e4090002d
:102b7400e0c3b30080cf5000c3ff360040c1b300b0
:102b8400004f780040c1b300104798003800370068
:102b94001e4090000081fb001e4090008080fb00de
:102ba40000802000008040001040780080407800c1
:102bb4000134a0000080200000004100014878009a
:102bc4001e4090000080fb004202200000014100f2
:102bd4001e4090000080fb004102200080804000e5
:102be4000080200000804000104078008040780081
:102bf4000114a0000080200000004100014878007a
:102c04001e81fb009e80fb000080200000804000ad
:102c140010407800804078000124a000008020004b
:102c240000004100014878001e80fb006401400060
:102c34001e80fb00e4004000008020000080400073
:102c440010407800804078000104a000008020003b
:102c540000004100014878001e40780069404000af
:102c6400004f78001e4090000040e8001047980094
:102c74001e409000f84f5000c5ff360041802000f0
:102c840091407800d0cfb30000c0600004e8b700e2
:102c9400d18020009140780050cfb30000c0600084
:102ca4000de8b700618120009140780070cfb30037
:102cb40000c0600016e8b70041822000914078000f
:102cc400e0cfb30000c0600024e8b70051822000c8
:102cd40091407800a0cfb30000c0600025e8b700a1
:102ce4006182200091407800b0cfb30000c0600042
:102cf40026e8b700c182200091407800b0cfb3002d
:102d040000c060002ce8b700b18220009140780038
:102d1400a0cfb30000c060002be8b700a182200060
:102d240091407800e0cfb30000c060002ae8b7000b
:102d3400c18420009140780070cfb30000c06000cf
:102d44004ce8b700318420009140780050cfb300a4
:102d540000c0600043e8b700a183200091407800e0
:102d6400d0cfb30000c060003ae8b7000040eb00e9
:102d7400004f78000040eb001047980038003700ff
:102d84001e4090000081fb001e4090008080fb00ec
:102d940000802000008040001040780080407800cf
:102da4000134a000008020000000410001487800a8
:102db4001e4090000080fb008204200000014100be
:102dc4001e4090000080fb008104200080804000b1
:102dd400008020000080400010407800804078008f
:102de4000114a00000802000000041000148780088
:102df4001e81fb009e80fb000080200000804000bc
:102e040010407800804078000124a0000080200059
:102e140000004100014878001e80fb00680140006a
:102e24001e80fb00e800400000802000008040007d
:102e340010407800804078000104a0000080200049
:102e440000004100014878001e40780069404000bd
:102e5400004f78001e4090000040e80010479800a2
:102e64001e409000e84f5000c5ff36000040eb00c4
:102e74001047980023003700826180001e409000b4
:102e84008080fb00e0d320000080400010407800e8
:102e94000080fb00800f5100070032001e409000ac
:102ea4008080fb00e0d320000080400010407800c8
:102eb400f1c0b300180007001e4090008080fb00a2
:102ec40020d420000080400010407800f1c0b300fe
:102ed400110007001e4090000080fb00000040002d
:102ee400e600400040c4200000804000100078004c
:102ef400f1c0b300080007001e4090000040e80045
:102f0400104798001e409000e34f5000daff36004f
:102f14000080fa00000006000400fa002047980030
:102f2400314798003e4090000080fb006100600043
:102f34000004e0001a0032002e4090000081fb00e3
:102f44002e4090008080fb00008020000080400024
:102f540010407800804078000104a0000080200028
:102f640000004100014878002e4090000080fb00e2
:102f74000001e8002e4090000080fb008000e80083
:102f840000802000008040001040780080407800dd
:102f94000124a000008020000000410001487800c6
:102fa4003e4090000080fb000000d1006100600002
:102fb4000004e0001a0032002e4090000081fb0063
:102fc4002e4090008080fb000080200000804000a4
:102fd40010407800804078000114a0000080200098
:102fe40000004100014878002e4090000080fb0062
:102ff400690140002e4090000080fb00e900400081
:10300400008020000080400010407800804078005c
:103014000134a00000802000000041000148780035
:103024003e4090000080fb004200de006100600032
:103034000004e0001a0032002e4090000081fb00e2
:103044002e4090008080fb00008020000080400023
:1030540010407800804078000124a0000080200007
:103064000000410001487800ae40900000c0eb0031
:1030740000c04000004f78001e81fb009e80fb00d2
:1030840000802000008040001040780080407800dc
:103094000104a000008020000000410001487800e5
:1030a4003e4090000080fb004300de0061006000b1
:1030b4000004e0001a0032002e4090000081fb0062
:1030c4002e4090008080fb000080200000804000a3
:1030d40010407800804078000134a0000080200077
:1030e4000000410001487800ae40900070cfb3006a
:1030f40000c04000004f78001e81fb009e80fb0052
:10310400008020000080400010407800804078005b
:103114000114a00000802000000041000148780054
:103124000080fa00000006000400fa00004f780056
:1031340000c5b3009e4f10000c003e009e80fb00b3
:103144000080200000804000104078000080fb00d8
:103154004600de00610060000004e000030032006d
:103164001000200010079800020037000000eb0058
:10317400100798001e0090000080fa00000006006e
:103184000200fa0050628000e7ff07000000e00040
:10319400030032000000eb00000f78001e0037002f
:1031a40060628000e0ff07000000e00003003200de
:1031b4000000eb00000f78001700370070628000f9
:1031c400d9ff07000000e000030032000000eb001c
:1031d400000f78001000370080628000d2ff0700e3
:1031e4000000e000030032000000eb00000f780054
:1031f4000900370011628000d0628000808f500087
:10320400030036000000eb00000f780002003700d6
:1032140010002000000f78001e0078000080fa00e3
:10322400000006000200fa0030628000004f7800bf
:1032340020628000104798001e80fb0050628800c6
:10324400f00f200060628800f00f20007062880098
:10325400f00f2000806288001e4090000080fb0078
:103264004300de00610060000000e00027003a0037
:103274001e4090000080fb00610060000004e0003c
:103284001d0032009e4090001e4078000702070097
:103294000080fb00606288001e4090000040e8004f
:1032a400104798001e409000674060001047980047
:1032b4009e4090001e407800fc0107000080fb0047
:1032c400706288009e409000e0cfb30000c04000d0
:1032d400104798001e409000674060001047980017
:1032e4009e4090001e407800f00107000080fb0023
:1032f40080628800050037009e4090001e407800e0
:10330400ea0107000080fb00606288000080fa0088
:10331400000006000200fa000040eb00104798008d
:103324001e4090008080fb000080200080804000d0
:1033340000c0eb00804878001e4090000040e90087
:10334400104798001e4090000004e000f4ff3a008b
:103354000040eb0010479800090037001e40900021
:103364008080fb0000802000808040000040eb0053
:10337400804878001e4090000040e8001047980004
:103384009e40900000c5b30080cf5000f3ff36008c
:103394000040eb00004f78000040eb00104798001d
:1033a400380037001e4090000081fb001e40900052
:1033b4008080fb0000802000008040009040780066
:1033c40080c3b30080c07000008020000000410072
:1033d400014878001e4090000080fb008204200019
:1033e400000141001e4090000080fb008104200089
:1033f40080804000008020000080400090407800e1
:1034040020c3b30080c07000008020000000410091
:10341400014878001e81fb009e80fb000080200094
:10342400008040009040780040c3b30080c070002a
:103434000080200000004100014878001e80fb004d
:10344400680140001e80fb00e8004000008020006e
:10345400008040009040780010c3b30080c070002a
:103464000080200000004100014878001e407800e0
:1034740069404000004f78001e4090000040e80082
:10348400104798001e409000e84f5000c5ff3600da
:103494000040eb00104798003d0037001e409000ac
:1034a4000081fb001e4090008080fb000080200013
:1034b4000080400090407800f0c4b30080c07000e9
:1034c4000080200000004100014878001e40900068
:1034d4000080fb00690140001e4090000080fb005a
:1034e400e900400000802000008040009040780007
:1034f400f0c4b30080c070000080200000004100d0
:10350400014878001e4090000080fb00f203200078
:10351400000141001e4090000080fb00f1032000e8
:1035240080804000008020000080400090407800af
:10353400f0c4b30080c0700000802000000041008f
:10354400014878001e4090000080fb0082042000a7
:10355400000141001e4090000080fb008104200017
:10356400808040000080200000804000904078006f
:10357400f0c4b30080c0700000802000000041004f
:10358400014878001e4090000040e8001047980071
:103594001e409000e84f5000c0ff360020c1b30029
:1035a40010479800390037001e4090000081fb004e
:1035b4001e4090008080fb000080200000804000be
:1035c40090407800f0c4b30080c0700000802000f8
:1035d40000004100014878001e4090000080fb007c
:1035e4000001e8001e4090000080fb008000e8001d
:1035f400008020000080400090407800f0c4b300b8
:1036040080c0700000802000000041000148780064
:103614001e4090000080fb00670140001e409000a7
:103624000080fb00e7004000008020000080400094
:1036340090407800f0c4b30080c070000080200087
:1036440000004100014878001e4090000080fb000b
:10365400680140001e4090000080fb00e80040002c
:10366400008020000080400090407800f0c4b30047
:1036740080c07000008020000000410001487800f4
:103684001e40900069404000104798009e40900002
:10369400e0c3b30080cf5000c3ff360014c8bf009e
:1036a4000044a00014e8b7003cc8bf000044a000d8
:1036b4003ce8b7000ac8bf000044a0000ae8b7000d
:1036c40010c8bf000044a00010e8b70046c8bf00ff
:1036d4000044a00046e8b70040c8bf000044a00072
:1036e40040e8b7000080fa00000006000a00fa0073
:1036f400004f98000040eb00604798006e40900037
:103704008080fb00009020008080400000c0eb001f
:10371400804878006e4090000040e90060479800bf
:103724006e4090000004e000f4ff3a000e48900060
:103734008080fb0000902000808040000040eb006f
:10374400804878000040eb00204798000040eb00e0
:10375400404798004e4090000040e80030479800f1
:103764000040eb00004f78000040eb0060479800f9
:103774006e4090008080fb0000902000008040009c
:10378400904078004e40900080cf50006b003a008b
:103794006e4090008080fb0000802000008040008c
:1037a40090407800114798001e4090000080fb0074
:1037b4000000a200610060000004e000120032007a
:1037c4006e4090000040e800504798005e40900032
:1037d4008080fb00009020000080400010407800b2
:1037e400e14f400008003a005e4090008080fb00fa
:1037f4000090200000804000be4090000148780006
:1038040010c0b300004f78001e4090000080fb0001
:103814000000d1000000a200610060000004e0008c
:10382400120032006e4090006940400050479800fa
:103834005e4090008080fb000090200000804000eb
:1038440010407800e14f400008003a005e409000cc
:103854008080fb000090200000804000be4090006b
:103864000148780010c0b300004f78001e4090005b
:103874000080fb004200de000000a2006100600046
:103884000004e00013003200ee40900000c0eb00a2
:1038940000c04000504798005e4090008080fb00cc
:1038a400009020000080400010407800e14f40006c
:1038b40008003a005e4090008080fb0000902000e9
:1038c40000804000be4090000148780010c0b30062
:1038d400004f78001e4090000080fb004300de0093
:1038e4000000a200610060000004e0001300320048
:1038f400ee40900070cfb30000c0400050479800e5
:103904005e4090008080fb0000902000008040001a
:1039140010407800e14f400008003a005e409000fb
:103924008080fb000090200000804000be4090009a
:103934000148780010c0b300004f78006e4090003a
:103944000040e900604798006e4090000004e000e9
:1039540087ff3a004e4090000040e800404798003e
:103964004e4090000040e800304798002e40900000
:103974000040e800204798001e04e00078ff3a0069
:103984002e4090000080fb000080fa00000006003a
:103994000800fa0020479800314798003e40900004
:1039a400ae40900001405000004f78001e00fb0024
:1039b400300798003e009000e10f40002a003200da
:1039c4003e009000e10f40000a003c003e009000e1
:1039d400e90f40002a0032003e009000e80f40004a
:1039e4002a0032003e009000ea0f4000210032001d
:1039f400290037003e009000e80f50001700320005
:103a04003e009000e80f500004003c003e0090008f
:103a1400e10f5000080032001f0037003e00900004
:103a2400e90f50000a0032003e009000ea0f5000f7
:103a340004003200180037000000eb002007980053
:103a440017003700100020002007980014003700ea
:103a540020002000200798001100370030002000cb
:103a6400200798000e00370040002000200798002f
:103a74000b00370050002000200798000800370092
:103a84006000200020079800050037007000200027
:103a940020079800020037008000200020079800cb
:103aa4002e0090000080fa00000006000600fa00d4
:103ab400004f7800114798001e4090000080fb00e2
:103ac400200798002e009000e30f500029003200d8
:103ad4002e009000e30f50000a003c002e009000de
:103ae400e10f5000190032002e009000e10f500049
:103af4001b003c002e0090000000e0000e0032008d
:103b0400390037002e009000e50f500024003200e9
:103b14002e009000e50f50001b0035002e00900091
:103b2400e60f5000240032002e009000e70f5000f2
:103b3400270032002c0037001e4078000040e800c7
:103b44000080fb0010079800290037001e40780011
:103b54006a4040000080fb001007980024003700f2
:103b64001e407800694040000080fb001007980068
:103b74001f0037001e407800684040000080fb00b2
:103b8400100798001a0037009e40780000c0eb0030
:103b940000c040000080fb001007980014003700ac
:103ba4009e40780060cfb30000c040000080fb005e
:103bb400100798000e0037009e40780070cfb300c5
:103bc40000c040000080fb00100798000800370088
:103bd4009e40780080cfb30000c040000080fb000e
:103be40010079800020037001e80fb0010079800a1
:103bf4001e0090000080fa00000006000600fa0093
:103c0400004f78001e407800674f60001e80fb0064
:103c1400200798002e009000e30f5000230032008c
:103c24002e009000e30f50000a003c002e0090008c
:103c3400e10f5000170032002e009000e10f5000f9
:103c440017003c002e0090000000e0000e0032003f
:103c5400250037002e009000e50f500019003200b7
:103c64002e009000e50f5000130035002e00900048
:103c7400e60f5000160032002e009000e70f5000af
:103c84001600320018003700000c200010079800be
:103c94001700370040042000100798001400370074
:103ca4005004200010079800110037006004200021
:103cb400100798000e003700300420001007980009
:103cc4000b0037002004200010079800080037007c
:103cd400100420001007980005003700000420009d
:103ce4001007980002003700000c2000100798000d
:103cf4001e0090000080fa00000006000800fa0090
:103d0400106680000000e00045003200e0de28007c
:103d14003f1007000000eb00200798000500370063
:103d2400d0c2b300271007002e0090000000e80066
:103d340020079800ae009000f0022000808f500011
:103d4400f7ff3600e0de2800311007008000200075
:103d5400300798000000eb00200798002d00370082
:103d64000000eb001007980013003700be0090001d
:103d74000080200000804000104078000080fb009c
:103d8400801f780010df2800801f780040cc2000be
:103d9400e6f10700e487570040cc20001c10070020
:103da4003e00900069004000300798001e0090001b
:103db4000000e800100798001e009000e80f500073
:103dc400eaff3600be009000e0fa2f0000804000b9
:103dd4003007980080df28000d1007000000eb007a
:103de400000f780003003700d0c2b300f50f0700be
:103df4001e0fe800f00220009e0f1000faff3600ac
:103e0400e0de2800021007002e0090000000e80009
:103e1400200798002e009000e80f5000d0ff3600d5
:103e24000080fa00000006000800fa001066800016
:103e34000000e00045003200e0de2800f40f070037
:103e44000000eb002007980005003700d0c2b30043
:103e5400dc0f07002e0090000000e8002007980007
:103e6400ae00900080032000808f5000f7ff3600e2
:103e7400e0de2800e60f07008000200030079800ed
:103e84000000eb00200798002d0037000000eb0035
:103e94001007980013003700be0090000090200027
:103ea40000804000104078000080fb00801f7800f4
:103eb400e0df2800801f780040cc20009bf1070041
:103ec400e487570040cc2000d10f07003e0090004b
:103ed40069004000300798001e0090000000e800d0
:103ee400100798001e009000e80f5000eaff36000b
:103ef400be009000e0fa2f000080400030079800d8
:103f040080df2800c20f07000000eb00000f7800dc
:103f140003003700d0c2b300aa0f07001e0fe80049
:103f2400800320009e0f1000faff3600e0de280018
:103f3400b70f07002e0090000000e800200798004b
:103f44002e009000e80f5000d0ff36000080fa00e9
:103f5400000006000800fa00106680000000e0007f
:103f64004a003200e0de2800a90f07000000eb0041
:103f74002007980005003700d0c2b300910f070056
:103f84002e0090000000e80020079800ae0090008a
:103f9400f0022000808f5000f7ff3600e0de28009a
:103fa4009b0f070080002000300798000000eb0002
:103fb40020079800320037000000eb00100798003b
:103fc40018003700be0090000080200000804000f0
:103fd400104078000004e00003003d0050e0280099
:103fe4008b0f0700090037003e009000801f780007
:103ff400b0e02800801f780040cc20004bf107007f
:10400400e487570040cc2000810f07003e00900059
:1040140069004000300798001e0090000000e8008e
:10402400100798001e009000e80f5000e5ff3600ce
:10403400be009000e0fa2f00008040003007980096
:1040440080df2800720f07000000eb00000f7800eb
:1040540003003700d0c2b3005a0f07001e0fe80058
:10406400f00220009e0f1000faff3600e0de280068
:10407400670f07002e0090000000e800200798005a
:104084002e009000e80f5000cbff36000080fa00ad
:10409400000006000000fa00e0042000303a880026
:1040a40044c7bf00f043b20044e7b70041742000a6
:1040b4009140780000ceb30000c060003040b300ef
:1040c40044e7b7001200200081072000a009200067
:1040d400337420008149780080497800824978004f
:1040e40012002000610420007005200023742000c9
:1040f40081497800804978008249780043c7bf002d
:104104000047b200f04f5000fcff3a0042c7bf0026
:104114000042b2000004e000fcff32000080fa001c
:10412400000006000000fa00daff0700800020000b
:10413400601988007b0c070001168000f0bf2f0077
:10414400008060000016880021168000f0bf2f0058
:104154000080600020168800a6060700910607006c
:1041640053080700ed0d0700050a07007403070054
:10417400930c070034cdbf000004e00006003200b9
:1041840035cdbf000004e000030032001000200021
:1041940010668800df0e0700a8090700050c070059
:1041a4000080fa00000006000200fa0040c7bf00c9
:1041b40001c8b300014060000004e00003003200c5
:1041c40050002000000f78002d00370040c7bf00ca
:1041d400614060000004e000030032001000200091
:1041e400000f78002600370040c7bf00624060001f
:1041f4000004e0000300320020002000000f7800db
:104204001f00370040c7bf00704060000004e0009a
:104214000300320030002000000f7800180037003f
:1042240040c7bf000044b2000004e00003003200b5
:1042340040002000000f78001100370041c7bf0084
:104244000044b2000004e0000300320060002000db
:10425400000f78000a00370041c7bf0001c8b3004f
:10426400014060000004e000030032007000200000
:10427400000f7800020037000000eb00000f780008
:104284001e0078000080fa00000006000c00fa000e
:10429400889fbe0060c9b300004f7800a1ff0700eb
:1042a4002116800000402000008070002016880045
:1042b40000972700310420006d0f070021168000ad
:1042c400f0bf2f00008060002016880000972700b0
:1042d40031042000660f07002116800000402000f2
:1042e4000080700020168800009727003104200009
:1042f4005f0f070021168000f0bf2f0000806000d0
:10430400201688006e0207006009070060c3b3002e
:1043140055080700a0c3b30053080700b0c3b30097
:104324005108070040c3b3004f08070000ba2f002c
:10433400c10220004e0f0700b0c3b3005b080700a2
:104344000080fb00100798009e009000f00f2000f2
:1043540000806000100798001e009000801f780005
:1043640040d72800801f780040cc20006ff0070061
:10437400e487570040cc2000a50e07001e009000e3
:104384000000e0002200320060c3b30036080700da
:10439400a0c3b30034080700b0c3b3003208070059
:1043a40040c3b30030080700d3c2bf0061406000bf
:1043b4000004e000fcff3200d3c2bf006140600093
:1043c4000004e000fcff3a00d0562200c008880038
:1043d4008097250011002000250f07000000eb0046
:1043e400506a8800860b07000000eb008068880094
:1043f40010002000406a8800910b07000000e000d4
:1044040016003200d062800010628800130037006a
:104414007b0b07000000eb00806888001000200080
:10442400406a88000d003700816880004006200043
:10443400808f5000090036000000eb00406a8800bd
:104444009f0b0700fd08070010002000406a880049
:1044540000e42f0011012000050f070033cdbf0039
:104464000004e000f0ff3200106680000000e0006d
:10447400220032004cff070050079800de00900035
:10448400e18f5000040032005e009000e50f500000
:104494000b0032001200370040698000801f780052
:1044a400b0d72800801f780040cc20001ff0070000
:1044b400e487570040cc2000550e07000f0037005a
:1044c40010d9280041cc20000f000900b058780012
:1044d4000001b10040cc20004d0e0700070037005a
:1044e40010da280041cc20000f000900b0587800f1
:1044f4000001b10040cc2000450e070085fb0700f9
:10450400000037008168800040062000808f500042
:10451400090036000000eb00406a8800680b0700c1
:10452400c608070010002000406a880000e42f003d
:1045340011012000ce0e0700406180004007980062
:10454400ce009000e28f50005b0032004e009000dd
:10455400e20f500007003e00ce0090000100e00092
:104564000b0032004e009000e10f50002e0032008c
:10457400e4ff3700ce009000e38f50002b0132009f
:104584004e009000e40f5000ae013200ddff370012
:104594008e0507004a0b0700490b0700900507002a
:1045a40060618000e7406000706180003ffd0700ab
:1045b400704798007e4090000081fb007e40900090
:1045c4008080fb00008020000080400010407800c4
:1045d400804078000144a0000080200000004100d9
:1045e400014878002ccdbf000004e0000b0032002d
:1045f400905080000000e8009050880091508000a6
:10460400e0d3200000804000fe4090000148780084
:104614003000200040618800baff370010002000fd
:1046240040618800b7ff37000162800000a02000cd
:1046340000804000904078007147980071618000cc
:104644007e4090000080fb00808f500004003a0000
:10465400006280000000e80000628800a9ff3700c3
:104664007e4090000080fb008061880010002000e4
:1046740050618800200020004061880000628000b2
:104684000000e8000062880000628000f00f500023
:104694009cff36000000eb0000628800400120000f
:1046a40080618800100020005061880020002000f4
:1046b4004061880093ff3700e10a07008bf8070088
:1046c4008061800009fc070070618000e7f6070044
:1046d4007047980070618000fe409000acfc0700b9
:1046e4006047980060618000e74060006e40900081
:1046f4000140500050479800d10a07007e409000c6
:1047040035f707000000e0007eff3a00706180008a
:1047140085fa07000000e0000a003a007e4090009d
:1047240081fa07000000e00006003200d06180003a
:104734000000e00073ff3200f06180000000e00040
:1047440070ff32007061800077fa07000000e0001b
:10475400070032007e40900073fa07000000e0007a
:1047640003003a00106280000080e80010628800b4
:104774007e4090008af507000000e0000600320049
:10478400f06180000000e0000300320040002000df
:10479400406188005bff3700405a8000e10f500001
:1047a40003003200405a8000e30f50001d003a001d
:1047b4005e4090000004e00052ff3a006061800017
:1047c4006700600060618800f2588000035980002f
:1047d40000102100210420000200400083804800d2
:1047e400f058880001598800405a8000e30f5000b7
:1047f40002003a0010002000405a88000061800046
:10480400116180000001400081814800205980002e
:1048140031598000800f5100818f5900f7ff350016
:1048240050003700405a8000e90f500035ff3a002d
:104834005e4090000004e0001a00320069cf2000be
:10484400994478000984fb005e409000ebfc07006b
:104854008040780080a120000000440001487800d6
:104864000940e800f6ecb70062cf2000124178005e
:104874008280fb0080a120008080400010ccb30027
:10488400804878000240e800f6ecb700e201070037
:104894006e4090000034a0000080fb00606188003e
:1048a40018ff3700c9040700850a0700840a0700b7
:1048b400cb0407007e409000c7f607000000e0002c
:1048c40012003a007e4090000081fb007e40900080
:1048d4008080fb00008020000080400010407800b1
:1048e400804078000144a0000080200000004100c6
:1048f400014878002ccdbf000004e0000300320022
:104904007e409000e2f40700fefe37006061800004
:10491400670060006061880062cf20001241780067
:104924008280fb0080a120008080400000c9b30089
:10493400804878000240e800f6ecb70062cf20001f
:10494400124178008280fb0080a12000808040001a
:1049540010ccb300804878000240e800f6ecb700c1
:10496400ad010700405a8000e10f5000fdff3a00fe
:1049740000618000116180000001400081814800d5
:104984002059800031598000800f5100818f5900d7
:10499400f7ff3c0060618000804078007061800017
:1049a40042fc07000080fb00706188007061800099
:1049b4000001780080007800008020000080400022
:1049c4009040780000c8b30080c0700000802000d0
:1049d4000000410001487800606180000030a000c0
:1049e40060618800bff507000000e00006003200a7
:1049f400f06180000000e00003003a003000200075
:104a040040618800bffe3700716180000090200083
:104a140000804000104078000004e000b9fe3a0035
:104a24005061800040618800b6fe3700baf4070088
:104a3400704798007e4090000004e0006900320056
:104a4400ff0907007e409000b7f907000000e0006e
:104a540003003200d06180000000e000a9fe3200b3
:104a640070618000fe409000c9fb07006047980019
:104a74006e409000e84f500025003a0014f50700fe
:104a8400704798007e4090000004e0000800320067
:104a94007e4090000080fb00806188003000200090
:104aa40050618800200020004061880095fe370096
:104ab400006280000000e80000628800016280005b
:104ac40000a0200000804000104078008080fb009f
:104ad4000080200000804000104078000004e000c6
:104ae400f3ff35000162800000a020000080400038
:104af400104078000080fb008061880010002000d6
:104b04005061880020002000406188007dfe37004d
:104b14006e40900018f70700f06180000000e0008c
:104b240078fe32007e40900040479800706180001b
:104b3400806188002af50700704798007e40900045
:104b44000004e0006ffe32000000eb001007980044
:104b5400130037009e009000e0d320000080400046
:104b64009040780000c5b30080cf500009003e009b
:104b74009e009000e0d32000008040009040780028
:104b84004e40900080cf500002003a001e0090007a
:104b9400404798001e0090000000e80010079800ad
:104ba4001e009000e30f5000eaff36004e409000d4
:104bb4008080fb00e0d3200000804000fe40900095
:104bc400014878007e4090000080fb0080618800ee
:104bd40030002000506188002000200040618800df
:104be40048fe3700006280000000e8000062880090
:104bf4000162800000a02000008040001040780086
:104c04008080fb000080200000804000104078007d
:104c14000004e000f3ff35000162800000a02000e2
:104c240000804000104078000080fb008061880014
:104c3400100020005061880020002000406188009e
:104c440030fe37005ef6070033f407000004e0008e
:104c540003003200300020004061880029fe370044
:104c6400006280000000e8000062880001628000a9
:104c740000a0200000804000104078008080fb00ed
:104c84000080200000804000104078000004e00014
:104c9400f3ff35000162800000a020000080400086
:104ca400104078000080fb00806188001000200024
:104cb40050618800200020004061880011fe370008
:104cc4000200fa00a000200060618800400120007a
:104cd400706188004001200080618800100020007d
:104ce400d06188000000eb00f061880040012000e2
:104cf40090618800d0012000a0618800f00f20009e
:104d0400b0618800f00f2000c06188000000eb0053
:104d1400006288000000eb0010628800e0002000c0
:104d240020628800c003200030628800c003200095
:104d34004062880010002000906288000000eb00b0
:104d4400b0628800c003200050628800e00f200099
:104d540060628800e00f200070628800e00f20008d
:104d64008062880010002000d06288000000eb0000
:104d7400000f7800080037001e0178009e007800bc
:104d8400c0dc2800e140780000a0200000004100c1
:104d9400014878001e0fe800000120009e0f10005b
:104da400f5ff34000080eb00905088000000eb0019
:104db400406188000080fa00000006000200fa004a
:104dc400e000200060618800c0032000706188005a
:104dd400c00320008061880010002000d06188009a
:104de4000000eb00f0618800c0032000906188009f
:104df40030032000a0618800e00f2000b06188002b
:104e0400e00f2000c06188000000eb000062880011
:104e14001000200010628800a0002000206288009a
:104e24004001200030628800400120004062880078
:104e340010002000906288000000eb00b06288003f
:104e44004001200050628800d00120006062880088
:104e5400f00f200070628800f00f2000806288004c
:104e64000000eb00d06288000000eb00000f780027
:104e7400080037001e0178009e007800d0dd28006d
:104e8400e140780000a020000000410001487800c3
:104e94001e0fe800000120009e0f1000f5ff3400f3
:104ea4000080eb00905088000000eb004061880017
:104eb4000080fa00000006000200fa00000f7800eb
:104ec4001e00780010007800801f780010db280096
:104ed400801f780040cc200094ed0700e487570041
:104ee40040cc2000ca0b07001e0078001000900080
:104ef400801f7800b0db2800801f780040cc2000a1
:104f04008aed0700e487570040cc2000c00b07005f
:104f14001e00780030089000801f780030dc2800e4
:104f2400801f780040cc200080ed0700e487570004
:104f340040cc2000b60b07000080fa0000000600f9
:104f44000000fa00b05a80006a00b90080007800be
:104f540080b520000080400010007800405988008f
:104f6400b05a80006a00b9008080e80080b5200053
:104f74000080400010007800505988009000200004
:104f8400405a88000000eb00605988000000eb00e4
:104f94007059880010ccb30018eab70010ccb300e5
:104fa40019eab7000040eb0018ebb7006000b80046
:104fb4002059880031598800000028001100200081
:104fc40080598800915988000018200001002000b1
:104fd400a0598800b159880010ff2f00c0598800db
:104fe400e0fc2f00d05988000000eb00e059880055
:104ff400a0002000f05988006000b800005a880022
:10500400115a88006000b800205a8800315a88007c
:105014000080fa00000006000000fa0018cbbf0070
:105024000004e00003003a0010ccb30051ebb700d9
:105034000700370018cbbf000080fb008000e900a8
:1050440080a12000008040001040780051ebb700a0
:1050540082b12000124178008280fb0080a12000f0
:10506400008040001040780016eab7000240e800d3
:1050740018ebb70018cbbf008080fb0080a1200094
:10508400008040001040780017eab70061a12000ba
:105094009140780010ccb30080cf500007003a0054
:1050a40090002000405a88000000eb0070598800ee
:1050b4000000eb0060598800020037000000eb009c
:1050c400405a88000080fa00000006000200fa003e
:1050d400405a80008000eb00010f7800e90f500077
:1050e40002003a0010002000000f78001e00780033
:1050f4000080fa00000006000200fa002259800035
:10510400335980001021240001002000800f510039
:10511400818f5900220034005bcdbf000004e00001
:105124001f003a005acdbf00e14f50001c003a0066
:1051340022598000335980006118b9004f08de00fd
:105144000100200000004100818049008180d100dd
:105154000080d3008000780000c62200010f5000b8
:10516400008c250001002000205988003159880056
:105174001e007800cf80de004809dd00c801de0093
:10518400830171004801dd00d0588000e15880009f
:105194000200400083804800d0588800e15888000d
:1051a4005acdbf005bedb7000080fa000000060096
:1051b4000e00fa000000eb00705988000000eb00bc
:1051c400600798000000eb004007980013003700c8
:1051d4004e009000c1d120000000400001004000ba
:1051e400900078006e009000808f50000800360018
:1051f4004e009000c1d1200000004000010040009a
:1052040090007800610798004e00900050079800c5
:105214004e0090000000e800400798004e00900007
:10522400e30f5000eaff36005e0090000000e0004b
:1052340009003a000000eb0030079800c0d12000bc
:105244001000780010079800c0d1200010009000d2
:1052540020079800200037005e009000e30f500004
:1052640009003a00c0d120002000900030079800c7
:10527400c0d1200030009000100798000000eb001f
:1052840020079800140037005e0090000000e90039
:10529400c1d120000000400001004000100078004f
:1052a400300798005e009000c1d12000000040004b
:1052b4000100400010007800100798005e00900084
:1052c4000000e800c1d120000000400001004000bf
:1052d4001000780020079800ae0090003e00900077
:1052e400008050004700dd00000f78001e00900091
:1052f40000004000800078003e0090008080500054
:105304002e009000008150001e007800110009005a
:105314000200d800000f78005e009000c800dd0095
:105324001e00780000804000000f78001e00780006
:10533400cf80de00a0598800b159880000b3200056
:10534400f9090700705988000080fa00000006007f
:105354000000fa000080fa00000006000200fa00d3
:10536400405a8000e90f500052003200116480005e
:1053740020648000008040006101b9002059800051
:105384003159800002004000838048002059880081
:105394003159880022598000335980002042280066
:1053a40001002000800f5100818f59000800340053
:1053b4002059800031598000e2bd2700f3ff2f00ff
:1053c400000041008180490020598800315988003b
:1053d40016cabf0001ccb300014f600000c8b3007f
:1053e4009e4f100014003a0016cabf000080fb0054
:1053f4004400de00610060000004e0000e003200a2
:1054040016cabf000080fb004500de00610060009a
:105414000004a2000004e0000700320016cabf0026
:105424000080fb006f0060000000e00001003a0013
:1054340031ff07005eff0700405a80000000e000d3
:1054440014003a0061a120009140780010ccb30010
:1054540080cf500003003a0090002000405a88009a
:105464001400370000c8b3009e4f100001003a003a
:105474003e00070000c4b3009e4f100001003a0034
:105484005201070000ccb3009e4f100001003a0007
:10549400e1fe070000c8b3009e4f100001003a006f
:1054a400a900070000c4b3009e4f100001003a0099
:1054b400700107000080fa00000006000600fa00f0
:1054c400889fbe008a9fbe00f25880000359800066
:1054d400d0588000e1588000001f51000197590006
:1054e400605980006103b900605980006101b9000e
:1054f4000235b80003b0b9000b0278000002420084
:105504000790b9000002420084057800605a8000c8
:105514006104b900605a80006101b9000243b80017
:1055240003c0b90007027800000242000990b900e4
:1055340000024200840378000600550087805d0065
:105544001e01be00aeef0700200798002e00900059
:1055540022002000110009000200d8004f05be00ff
:105564004f04be000080fa00000006000600fa00a6
:105574000040eb0050ebb70017cabf00004f7800a3
:1055840017cabf008080fb00000c200080806000f0
:1055940000082000808f500002003a0010ccb300b5
:1055a400004f780010ccb3009e4f100003003a0067
:1055b400c000200020079800080037001e80fb0070
:1055c400630160009e80fb000006200000806000f4
:1055d4004380de0000004100200798002e00900068
:1055e4006a00b90080007800a0b820000080400064
:1055f400100798000000eb007059880016cabf001d
:105604000080fb004500de00610060000004e00053
:1056140018003200b05a80006a00b900e600400069
:1056240080b520000080400010007800505a8800a7
:1056340016cabf000080fb006f006000c200dd00de
:10564400c0c02000008040001001be00f05880005f
:10565400015980000200400083804800f05888000f
:10566400015988006000b800205988003159880029
:105674002000370016cabf000080fb004400de0093
:10568400610060000004e00008003200b05a8000ad
:105694006a00b900e400400080b5200000804000aa
:1056a40010007800505a880002003700b0442100ee
:1056b400505a880016cabf000080fb006f006000cb
:1056c400c200dd00c0c02000008040001001be0008
:1056d400f058800001598000020040008380480097
:1056e400f0588800015988006000b80020598800eb
:1056f4003159880000802e0031002000d0588800e5
:10570400e1588800f25880000359800000802e0080
:10571400310020000200400083804800f0588800d7
:105724000159880040598000705a88001e0090007a
:1057340010007800605a880010002000405a880049
:105744000080fa00000006000000fa00f258800011
:105754000359800000c02e00f1ff2f000201400019
:1057640083814800d0588000e1588000800f5100a8
:10577400818f590005003c006000b800f058880093
:105784000159880024fe07008e00370054cbbf0067
:105794000004e0000300320020002000405a88008a
:1057a4000200370010002000405a8800405a800050
:1057b400e20f500019003a0016cabf000080fb0037
:1057c4004400de00610060000004e0000a003200d2
:1057d4006159800050598000008050006059880051
:1057e400605980000000e0000c003c000000eb0069
:1057f40060598800090037006159800040598000d1
:105804000080400060598800605980000000e0007a
:10581400020035000000eb0060598800405a800007
:10582400e10f500037003a0016cabf000080fb00a9
:105834004400de00610060000004e0001800320053
:105844006159800040598000008040006059880000
:1058540061598000505a8000808f5000020035004a
:10586400505a80006059880014ff0700705a88005d
:10587400715a800050598000808f50000500350017
:1058840010c0b30050ebb70030002000405a88002d
:105894001c00370040598000705a880019003700f6
:1058a4006159800050598000008050006059880080
:1058b400505a80008000ea0060598000808f5000b8
:1058c40003003500505a80000000ea006059880047
:1058d400fafe0700705a8800715a8000405980000f
:1058e400808f50000500350010c0b30050ebb700a6
:1058f40030002000405a88000200370050598000d0
:10590400705a8800405a8000e30f50001d003a008e
:10591400eafe0700705a880016cabf000080fb0028
:105924004400de00610060000004e0000b0032006f
:1059340061598000705a80000080500060598800ce
:1059440061598000605a8000808f50000d003c0037
:10595400605a8000605988000a003700615980004d
:10596400705a8000008040006059880061598000ae
:10597400605a8000808f500002003500605a800019
:105984006059880010648000c800dd002064800035
:105994004800dd00008040002200200011000900c2
:1059a4000200d8006101b900d0588000e15880009d
:1059b4000200400083804800d0588800e1588800e5
:1059c400ad0407000080fa00000006000200fa009f
:1059d4000040eb0050ebb7006000b800d0588800de
:1059e400e15888000000eb006059880016cabf0027
:1059f4000080fb004200de00610060000004e00063
:105a04000300320070002000705a88000200370042
:105a140090ff2f00705a88000000eb007059880036
:105a240016cabf000080fb0063006000680f4000de
:105a34001e0078006a00b900e4004000a0b820000d
:105a4400008040001000780001002000c808dd003c
:105a54000080fd00804078000040eb00f058880092
:105a64000159880070002000405a88000080fa0024
